{
  "_format": "hh-sol-artifact-1",
  "contractName": "crowdfunding",
  "sourceName": "contracts/crowdfunding.sol",
  "abi": [
    {
      "inputs": [
        {
          "internalType": "uint256",
          "name": "_index",
          "type": "uint256"
        }
      ],
      "name": "claimFund",
      "outputs": [],
      "stateMutability": "nonpayable",
      "type": "function"
    },
    {
      "inputs": [
        {
          "internalType": "uint256",
          "name": "_index",
          "type": "uint256"
        }
      ],
      "name": "claimRefund",
      "outputs": [],
      "stateMutability": "nonpayable",
      "type": "function"
    },
    {
      "inputs": [
        {
          "internalType": "string",
          "name": "_name",
          "type": "string"
        },
        {
          "internalType": "string",
          "name": "_desc",
          "type": "string"
        },
        {
          "internalType": "string",
          "name": "_creatorName",
          "type": "string"
        },
        {
          "internalType": "string",
          "name": "_projectLink",
          "type": "string"
        },
        {
          "internalType": "string",
          "name": "_cid",
          "type": "string"
        },
        {
          "internalType": "uint256",
          "name": "_fundingGoal",
          "type": "uint256"
        },
        {
          "internalType": "uint256",
          "name": "_duration",
          "type": "uint256"
        },
        {
          "internalType": "enum crowdfunding.Category",
          "name": "_category",
          "type": "uint8"
        },
        {
          "internalType": "enum crowdfunding.RefundPolicy",
          "name": "_refundPolicy",
          "type": "uint8"
        }
      ],
      "name": "createNewProject",
      "outputs": [],
      "stateMutability": "nonpayable",
      "type": "function"
    },
    {
      "inputs": [
        {
          "internalType": "uint256",
          "name": "_index",
          "type": "uint256"
        }
      ],
      "name": "fundProject",
      "outputs": [],
      "stateMutability": "payable",
      "type": "function"
    },
    {
      "inputs": [],
      "name": "getAllProjectsDetail",
      "outputs": [
        {
          "components": [
            {
              "internalType": "string",
              "name": "projectName",
              "type": "string"
            },
            {
              "internalType": "string",
              "name": "projectDescription",
              "type": "string"
            },
            {
              "internalType": "string",
              "name": "creatorName",
              "type": "string"
            },
            {
              "internalType": "string",
              "name": "cid",
              "type": "string"
            },
            {
              "internalType": "uint256",
              "name": "fundingGoal",
              "type": "uint256"
            },
            {
              "internalType": "uint256",
              "name": "amountRaised",
              "type": "uint256"
            },
            {
              "internalType": "uint256",
              "name": "totalContributors",
              "type": "uint256"
            },
            {
              "internalType": "uint256",
              "name": "creationTime",
              "type": "uint256"
            },
            {
              "internalType": "uint256",
              "name": "duration",
              "type": "uint256"
            },
            {
              "internalType": "enum crowdfunding.Category",
              "name": "category",
              "type": "uint8"
            }
          ],
          "internalType": "struct crowdfunding.ProjectMetadata[]",
          "name": "allProjects",
          "type": "tuple[]"
        }
      ],
      "stateMutability": "view",
      "type": "function"
    },
    {
      "inputs": [
        {
          "internalType": "address",
          "name": "creator",
          "type": "address"
        }
      ],
      "name": "getCreatorProjects",
      "outputs": [
        {
          "internalType": "uint256[]",
          "name": "createdProjects",
          "type": "uint256[]"
        }
      ],
      "stateMutability": "view",
      "type": "function"
    },
    {
      "inputs": [
        {
          "internalType": "uint256",
          "name": "_index",
          "type": "uint256"
        }
      ],
      "name": "getProject",
      "outputs": [
        {
          "components": [
            {
              "internalType": "string",
              "name": "projectName",
              "type": "string"
            },
            {
              "internalType": "string",
              "name": "projectDescription",
              "type": "string"
            },
            {
              "internalType": "string",
              "name": "creatorName",
              "type": "string"
            },
            {
              "internalType": "string",
              "name": "projectLink",
              "type": "string"
            },
            {
              "internalType": "string",
              "name": "cid",
              "type": "string"
            },
            {
              "internalType": "uint256",
              "name": "fundingGoal",
              "type": "uint256"
            },
            {
              "internalType": "uint256",
              "name": "duration",
              "type": "uint256"
            },
            {
              "internalType": "uint256",
              "name": "creationTime",
              "type": "uint256"
            },
            {
              "internalType": "uint256",
              "name": "amountRaised",
              "type": "uint256"
            },
            {
              "internalType": "address",
              "name": "creatorAddress",
              "type": "address"
            },
            {
              "internalType": "enum crowdfunding.Category",
              "name": "category",
              "type": "uint8"
            },
            {
              "internalType": "enum crowdfunding.RefundPolicy",
              "name": "refundPolicy",
              "type": "uint8"
            },
            {
              "internalType": "address[]",
              "name": "contributors",
              "type": "address[]"
            },
            {
              "internalType": "uint256[]",
              "name": "amount",
              "type": "uint256[]"
            },
            {
              "internalType": "bool[]",
              "name": "refundClaimed",
              "type": "bool[]"
            },
            {
              "internalType": "bool",
              "name": "claimedAmount",
              "type": "bool"
            }
          ],
          "internalType": "struct crowdfunding.Project",
          "name": "project",
          "type": "tuple"
        }
      ],
      "stateMutability": "view",
      "type": "function"
    },
    {
      "inputs": [
        {
          "internalType": "uint256[]",
          "name": "_indexList",
          "type": "uint256[]"
        }
      ],
      "name": "getProjectsDetail",
      "outputs": [
        {
          "components": [
            {
              "internalType": "string",
              "name": "projectName",
              "type": "string"
            },
            {
              "internalType": "string",
              "name": "projectDescription",
              "type": "string"
            },
            {
              "internalType": "string",
              "name": "creatorName",
              "type": "string"
            },
            {
              "internalType": "string",
              "name": "cid",
              "type": "string"
            },
            {
              "internalType": "uint256",
              "name": "fundingGoal",
              "type": "uint256"
            },
            {
              "internalType": "uint256",
              "name": "amountRaised",
              "type": "uint256"
            },
            {
              "internalType": "uint256",
              "name": "totalContributors",
              "type": "uint256"
            },
            {
              "internalType": "uint256",
              "name": "creationTime",
              "type": "uint256"
            },
            {
              "internalType": "uint256",
              "name": "duration",
              "type": "uint256"
            },
            {
              "internalType": "enum crowdfunding.Category",
              "name": "category",
              "type": "uint8"
            }
          ],
          "internalType": "struct crowdfunding.ProjectMetadata[]",
          "name": "projectsList",
          "type": "tuple[]"
        }
      ],
      "stateMutability": "view",
      "type": "function"
    },
    {
      "inputs": [
        {
          "internalType": "address",
          "name": "contributor",
          "type": "address"
        }
      ],
      "name": "getUserFundings",
      "outputs": [
        {
          "components": [
            {
              "internalType": "uint256",
              "name": "projectIndex",
              "type": "uint256"
            },
            {
              "internalType": "uint256",
              "name": "totalAmount",
              "type": "uint256"
            }
          ],
          "internalType": "struct crowdfunding.Funded[]",
          "name": "fundedProjects",
          "type": "tuple[]"
        }
      ],
      "stateMutability": "view",
      "type": "function"
    }
  ],
  "bytecode": "0x608060405234801561001057600080fd5b50614082806100206000396000f3fe6080604052600436106100865760003560e01c80636c563abe116100595780636c563abe14610145578063921fd11c1461016157806396e3de971461018a578063ce50cdb3146101c7578063f0f3f2c81461020457610086565b80630439e24d1461008b5780631739d15b146100c857806331c7364f146100f35780635b7baf641461011c575b600080fd5b34801561009757600080fd5b506100b260048036038101906100ad9190612b49565b610241565b6040516100bf9190612c3e565b60405180910390f35b3480156100d457600080fd5b506100dd6102d8565b6040516100ea9190612f18565b60405180910390f35b3480156100ff57600080fd5b5061011a60048036038101906101159190612f66565b610773565b005b34801561012857600080fd5b50610143600480360381019061013e9190612f66565b610b13565b005b61015f600480360381019061015a9190612f66565b610edb565b005b34801561016d57600080fd5b5061018860048036038101906101839190613112565b6110b7565b005b34801561019657600080fd5b506101b160048036038101906101ac9190612b49565b6114c4565b6040516101be9190613346565b60405180910390f35b3480156101d357600080fd5b506101ee60048036038101906101e99190613430565b611576565b6040516101fb9190612f18565b60405180910390f35b34801561021057600080fd5b5061022b60048036038101906102269190612f66565b611ba9565b6040516102389190613841565b60405180910390f35b6060600160008373ffffffffffffffffffffffffffffffffffffffff1673ffffffffffffffffffffffffffffffffffffffff1681526020019081526020016000208054806020026020016040519081016040528092919081815260200182805480156102cc57602002820191906000526020600020905b8154815260200190600101908083116102b8575b50505050509050919050565b60606000808054905067ffffffffffffffff8111156102fa576102f9612f9d565b5b60405190808252806020026020018201604052801561033357816020015b61032061281f565b8152602001906001900390816103185790505b50905060005b60008054905081101561076b576040518061014001604052806000838154811061036657610365613863565b5b90600052602060002090600e02016000018054610382906138c1565b80601f01602080910402602001604051908101604052809291908181526020018280546103ae906138c1565b80156103fb5780601f106103d0576101008083540402835291602001916103fb565b820191906000526020600020905b8154815290600101906020018083116103de57829003601f168201915b505050505081526020016000838154811061041957610418613863565b5b90600052602060002090600e02016001018054610435906138c1565b80601f0160208091040260200160405190810160405280929190818152602001828054610461906138c1565b80156104ae5780601f10610483576101008083540402835291602001916104ae565b820191906000526020600020905b81548152906001019060200180831161049157829003601f168201915b50505050508152602001600083815481106104cc576104cb613863565b5b90600052602060002090600e020160020180546104e8906138c1565b80601f0160208091040260200160405190810160405280929190818152602001828054610514906138c1565b80156105615780601f1061053657610100808354040283529160200191610561565b820191906000526020600020905b81548152906001019060200180831161054457829003601f168201915b505050505081526020016000838154811061057f5761057e613863565b5b90600052602060002090600e0201600401805461059b906138c1565b80601f01602080910402602001604051908101604052809291908181526020018280546105c7906138c1565b80156106145780601f106105e957610100808354040283529160200191610614565b820191906000526020600020905b8154815290600101906020018083116105f757829003601f168201915b505050505081526020016000838154811061063257610631613863565b5b90600052602060002090600e02016005015481526020016000838154811061065d5761065c613863565b5b90600052602060002090600e02016008015481526020016000838154811061068857610687613863565b5b90600052602060002090600e0201600a01805490508152602001600083815481106106b6576106b5613863565b5b90600052602060002090600e0201600701548152602001600083815481106106e1576106e0613863565b5b90600052602060002090600e02016006015481526020016000838154811061070c5761070b613863565b5b90600052602060002090600e020160090160149054906101000a900460ff16600381111561073d5761073c612d1c565b5b81525082828151811061075357610752613863565b5b60200260200101819052508080600101915050610339565b508091505090565b8060008054905081106107bb576040517f08c379a00000000000000000000000000000000000000000000000000000000081526004016107b29061394f565b60405180910390fd5b3373ffffffffffffffffffffffffffffffffffffffff16600083815481106107e6576107e5613863565b5b90600052602060002090600e020160090160009054906101000a900473ffffffffffffffffffffffffffffffffffffffff1673ffffffffffffffffffffffffffffffffffffffff161461086e576040517f08c379a0000000000000000000000000000000000000000000000000000000008152600401610865906139bb565b60405180910390fd5b426000838154811061088357610882613863565b5b90600052602060002090600e020160070154600084815481106108a9576108a8613863565b5b90600052602060002090600e0201600601546108c59190613a0a565b10610905576040517f08c379a00000000000000000000000000000000000000000000000000000000081526004016108fc90613a8a565b60405180910390fd5b60018081111561091857610917612d1c565b5b6000838154811061092c5761092b613863565b5b90600052602060002090600e020160090160159054906101000a900460ff16600181111561095d5761095c612d1c565b5b14806109b357506000828154811061097857610977613863565b5b90600052602060002090600e0201600501546000838154811061099e5761099d613863565b5b90600052602060002090600e02016008015410155b6109f2576040517f08c379a00000000000000000000000000000000000000000000000000000000081526004016109e990613af6565b60405180910390fd5b60008281548110610a0657610a05613863565b5b90600052602060002090600e0201600d0160009054906101000a900460ff1615610a65576040517f08c379a0000000000000000000000000000000000000000000000000000000008152600401610a5c90613b62565b60405180910390fd5b600160008381548110610a7b57610a7a613863565b5b90600052602060002090600e0201600d0160006101000a81548160ff0219169083151502179055503373ffffffffffffffffffffffffffffffffffffffff166108fc60008481548110610ad157610ad0613863565b5b90600052602060002090600e0201600801549081150290604051600060405180830381858888f19350505050158015610b0e573d6000803e3d6000fd5b505050565b806000805490508110610b5b576040517f08c379a0000000000000000000000000000000000000000000000000000000008152600401610b529061394f565b60405180910390fd5b4260008381548110610b7057610b6f613863565b5b90600052602060002090600e02016007015460008481548110610b9657610b95613863565b5b90600052602060002090600e020160060154610bb29190613a0a565b10610bf2576040517f08c379a0000000000000000000000000000000000000000000000000000000008152600401610be990613a8a565b60405180910390fd5b60006001811115610c0657610c05612d1c565b5b60008381548110610c1a57610c19613863565b5b90600052602060002090600e020160090160159054906101000a900460ff166001811115610c4b57610c4a612d1c565b5b148015610ca1575060008281548110610c6757610c66613863565b5b90600052602060002090600e02016005015460008381548110610c8d57610c8c613863565b5b90600052602060002090600e020160080154105b610ce0576040517f08c379a0000000000000000000000000000000000000000000000000000000008152600401610cd790613af6565b60405180910390fd5b6000610ceb8361217b565b90507fffffffffffffffffffffffffffffffffffffffffffffffffffffffffffffffff8103610d4f576040517f08c379a0000000000000000000000000000000000000000000000000000000008152600401610d4690613bf4565b60405180910390fd5b600081905060008481548110610d6857610d67613863565b5b90600052602060002090600e0201600c018181548110610d8b57610d8a613863565b5b90600052602060002090602091828204019190069054906101000a900460ff1615610deb576040517f08c379a0000000000000000000000000000000000000000000000000000000008152600401610de290613c60565b60405180910390fd5b600160008581548110610e0157610e00613863565b5b90600052602060002090600e0201600c018281548110610e2457610e23613863565b5b90600052602060002090602091828204019190066101000a81548160ff0219169083151502179055503373ffffffffffffffffffffffffffffffffffffffff166108fc60008681548110610e7b57610e7a613863565b5b90600052602060002090600e0201600b018381548110610e9e57610e9d613863565b5b90600052602060002001549081150290604051600060405180830381858888f19350505050158015610ed4573d6000803e3d6000fd5b5050505050565b806000805490508110610f23576040517f08c379a0000000000000000000000000000000000000000000000000000000008152600401610f1a9061394f565b60405180910390fd5b3373ffffffffffffffffffffffffffffffffffffffff1660008381548110610f4e57610f4d613863565b5b90600052602060002090600e020160090160009054906101000a900473ffffffffffffffffffffffffffffffffffffffff1673ffffffffffffffffffffffffffffffffffffffff1603610fd6576040517f08c379a0000000000000000000000000000000000000000000000000000000008152600401610fcd90613ccc565b60405180910390fd5b4260008381548110610feb57610fea613863565b5b90600052602060002090600e0201600701546000848154811061101157611010613863565b5b90600052602060002090600e02016006015461102d9190613a0a565b101561106e576040517f08c379a000000000000000000000000000000000000000000000000000000000815260040161106590613d38565b60405180910390fd5b611077826122d1565b346000838154811061108c5761108b613863565b5b90600052602060002090600e020160080160008282546110ac9190613a0a565b925050819055505050565b60006040518061020001604052808b81526020018a8152602001898152602001888152602001878152602001670de0b6b3a7640000876110f79190613d58565b8152602001603c866111099190613d58565b8152602001428152602001600081526020013373ffffffffffffffffffffffffffffffffffffffff16815260200184600381111561114a57611149612d1c565b5b815260200183600181111561116257611161612d1c565b5b8152602001600067ffffffffffffffff81111561118257611181612f9d565b5b6040519080825280602002602001820160405280156111b05781602001602082028036833780820191505090505b508152602001600067ffffffffffffffff8111156111d1576111d0612f9d565b5b6040519080825280602002602001820160405280156111ff5781602001602082028036833780820191505090505b508152602001600067ffffffffffffffff8111156112205761121f612f9d565b5b60405190808252806020026020018201604052801561124e5781602001602082028036833780820191505090505b5081526020016000151581525090806001815401808255809150506001900390600052602060002090600e020160009091909190915060008201518160000190816112999190613f46565b5060208201518160010190816112af9190613f46565b5060408201518160020190816112c59190613f46565b5060608201518160030190816112db9190613f46565b5060808201518160040190816112f19190613f46565b5060a0820151816005015560c0820151816006015560e0820151816007015561010082015181600801556101208201518160090160006101000a81548173ffffffffffffffffffffffffffffffffffffffff021916908373ffffffffffffffffffffffffffffffffffffffff1602179055506101408201518160090160146101000a81548160ff0219169083600381111561138f5761138e612d1c565b5b02179055506101608201518160090160156101000a81548160ff021916908360018111156113c0576113bf612d1c565b5b021790555061018082015181600a0190805190602001906113e2929190612884565b506101a082015181600b01908051906020019061140092919061290e565b506101c082015181600c01908051906020019061141e92919061295b565b506101e082015181600d0160006101000a81548160ff0219169083151502179055505050600160003373ffffffffffffffffffffffffffffffffffffffff1673ffffffffffffffffffffffffffffffffffffffff16815260200190815260200160002060016000805490506114939190614018565b9080600181540180825580915050600190039060005260206000200160009091909190915055505050505050505050565b6060600260008373ffffffffffffffffffffffffffffffffffffffff1673ffffffffffffffffffffffffffffffffffffffff168152602001908152602001600020805480602002602001604051908101604052809291908181526020016000905b8282101561156b57838290600052602060002090600202016040518060400160405290816000820154815260200160018201548152505081526020019060010190611525565b505050509050919050565b60606000825167ffffffffffffffff81111561159557611594612f9d565b5b6040519080825280602002602001820160405280156115ce57816020015b6115bb61281f565b8152602001906001900390816115b35790505b50905060005b8351811015611b9f576000805490508482815181106115f6576115f5613863565b5b60200260200101511015611a4157600084828151811061161957611618613863565b5b602002602001015190506040518061014001604052806000838154811061164357611642613863565b5b90600052602060002090600e0201600001805461165f906138c1565b80601f016020809104026020016040519081016040528092919081815260200182805461168b906138c1565b80156116d85780601f106116ad576101008083540402835291602001916116d8565b820191906000526020600020905b8154815290600101906020018083116116bb57829003601f168201915b50505050508152602001600083815481106116f6576116f5613863565b5b90600052602060002090600e02016001018054611712906138c1565b80601f016020809104026020016040519081016040528092919081815260200182805461173e906138c1565b801561178b5780601f106117605761010080835404028352916020019161178b565b820191906000526020600020905b81548152906001019060200180831161176e57829003601f168201915b50505050508152602001600083815481106117a9576117a8613863565b5b90600052602060002090600e020160020180546117c5906138c1565b80601f01602080910402602001604051908101604052809291908181526020018280546117f1906138c1565b801561183e5780601f106118135761010080835404028352916020019161183e565b820191906000526020600020905b81548152906001019060200180831161182157829003601f168201915b505050505081526020016000838154811061185c5761185b613863565b5b90600052602060002090600e02016004018054611878906138c1565b80601f01602080910402602001604051908101604052809291908181526020018280546118a4906138c1565b80156118f15780601f106118c6576101008083540402835291602001916118f1565b820191906000526020600020905b8154815290600101906020018083116118d457829003601f168201915b505050505081526020016000838154811061190f5761190e613863565b5b90600052602060002090600e02016005015481526020016000838154811061193a57611939613863565b5b90600052602060002090600e02016008015481526020016000838154811061196557611964613863565b5b90600052602060002090600e0201600a018054905081526020016000838154811061199357611992613863565b5b90600052602060002090600e0201600701548152602001600083815481106119be576119bd613863565b5b90600052602060002090600e0201600601548152602001600083815481106119e9576119e8613863565b5b90600052602060002090600e020160090160149054906101000a900460ff166003811115611a1a57611a19612d1c565b5b815250838381518110611a3057611a2f613863565b5b602002602001018190525050611b92565b6040518061014001604052806040518060400160405280600f81526020017f496e76616c69642050726f6a656374000000000000000000000000000000000081525081526020016040518060400160405280600f81526020017f496e76616c69642050726f6a656374000000000000000000000000000000000081525081526020016040518060400160405280600f81526020017f496e76616c69642050726f6a656374000000000000000000000000000000000081525081526020016040518060400160405280600f81526020017f496e76616c69642050726f6a65637400000000000000000000000000000000008152508152602001600081526020016000815260200160008152602001600081526020016000815260200160006003811115611b7057611b6f612d1c565b5b815250828281518110611b8657611b85613863565b5b60200260200101819052505b80806001019150506115d4565b5080915050919050565b611bb1612a01565b816000805490508110611bf9576040517f08c379a0000000000000000000000000000000000000000000000000000000008152600401611bf09061394f565b60405180910390fd5b60008381548110611c0d57611c0c613863565b5b90600052602060002090600e020160405180610200016040529081600082018054611c37906138c1565b80601f0160208091040260200160405190810160405280929190818152602001828054611c63906138c1565b8015611cb05780601f10611c8557610100808354040283529160200191611cb0565b820191906000526020600020905b815481529060010190602001808311611c9357829003601f168201915b50505050508152602001600182018054611cc9906138c1565b80601f0160208091040260200160405190810160405280929190818152602001828054611cf5906138c1565b8015611d425780601f10611d1757610100808354040283529160200191611d42565b820191906000526020600020905b815481529060010190602001808311611d2557829003601f168201915b50505050508152602001600282018054611d5b906138c1565b80601f0160208091040260200160405190810160405280929190818152602001828054611d87906138c1565b8015611dd45780601f10611da957610100808354040283529160200191611dd4565b820191906000526020600020905b815481529060010190602001808311611db757829003601f168201915b50505050508152602001600382018054611ded906138c1565b80601f0160208091040260200160405190810160405280929190818152602001828054611e19906138c1565b8015611e665780601f10611e3b57610100808354040283529160200191611e66565b820191906000526020600020905b815481529060010190602001808311611e4957829003601f168201915b50505050508152602001600482018054611e7f906138c1565b80601f0160208091040260200160405190810160405280929190818152602001828054611eab906138c1565b8015611ef85780601f10611ecd57610100808354040283529160200191611ef8565b820191906000526020600020905b815481529060010190602001808311611edb57829003601f168201915b50505050508152602001600582015481526020016006820154815260200160078201548152602001600882015481526020016009820160009054906101000a900473ffffffffffffffffffffffffffffffffffffffff1673ffffffffffffffffffffffffffffffffffffffff1673ffffffffffffffffffffffffffffffffffffffff1681526020016009820160149054906101000a900460ff166003811115611fa457611fa3612d1c565b5b6003811115611fb657611fb5612d1c565b5b81526020016009820160159054906101000a900460ff166001811115611fdf57611fde612d1c565b5b6001811115611ff157611ff0612d1c565b5b8152602001600a820180548060200260200160405190810160405280929190818152602001828054801561207a57602002820191906000526020600020905b8160009054906101000a900473ffffffffffffffffffffffffffffffffffffffff1673ffffffffffffffffffffffffffffffffffffffff1681526020019060010190808311612030575b50505050508152602001600b82018054806020026020016040519081016040528092919081815260200182805480156120d257602002820191906000526020600020905b8154815260200190600101908083116120be575b50505050508152602001600c820180548060200260200160405190810160405280929190818152602001828054801561214f57602002820191906000526020600020906000905b82829054906101000a900460ff161515815260200190600101906020826000010492830192600103820291508084116121195790505b50505050508152602001600d820160009054906101000a900460ff161515151581525050915050919050565b60008160008054905081106121c5576040517f08c379a00000000000000000000000000000000000000000000000000000000081526004016121bc9061394f565b60405180910390fd5b60007fffffffffffffffffffffffffffffffffffffffffffffffffffffffffffffffff905060005b6000858154811061220157612200613863565b5b90600052602060002090600e0201600a01805490508110156122c6576000858154811061223157612230613863565b5b90600052602060002090600e0201600a01818154811061225457612253613863565b5b9060005260206000200160009054906101000a900473ffffffffffffffffffffffffffffffffffffffff1673ffffffffffffffffffffffffffffffffffffffff163373ffffffffffffffffffffffffffffffffffffffff16036122b9578091506122c6565b80806001019150506121ed565b508092505050919050565b806000805490508110612319576040517f08c379a00000000000000000000000000000000000000000000000000000000081526004016123109061394f565b60405180910390fd5b60005b600083815481106123305761232f613863565b5b90600052602060002090600e0201600a0180549050811015612454573373ffffffffffffffffffffffffffffffffffffffff166000848154811061237757612376613863565b5b90600052602060002090600e0201600a01828154811061239a57612399613863565b5b9060005260206000200160009054906101000a900473ffffffffffffffffffffffffffffffffffffffff1673ffffffffffffffffffffffffffffffffffffffff16036124475734600084815481106123f5576123f4613863565b5b90600052602060002090600e0201600b01828154811061241857612417613863565b5b9060005260206000200160008282546124319190613a0a565b92505081905550612441836125fc565b506125f8565b808060010191505061231c565b506000828154811061246957612468613863565b5b90600052602060002090600e0201600a01339080600181540180825580915050600190039060005260206000200160009091909190916101000a81548173ffffffffffffffffffffffffffffffffffffffff021916908373ffffffffffffffffffffffffffffffffffffffff160217905550600082815481106124ef576124ee613863565b5b90600052602060002090600e0201600b013490806001815401808255809150506001900390600052602060002001600090919091909150556000600181111561253b5761253a612d1c565b5b6000838154811061254f5761254e613863565b5b90600052602060002090600e020160090160159054906101000a900460ff1660018111156125805761257f612d1c565b5b036125ee576000828154811061259957612598613863565b5b90600052602060002090600e0201600c01600090806001815401808255809150506001900390600052602060002090602091828204019190069091909190916101000a81548160ff0219169083151502179055505b6125f7826125fc565b5b5050565b806000805490508110612644576040517f08c379a000000000000000000000000000000000000000000000000000000000815260040161263b9061394f565b60405180910390fd5b60005b600260003373ffffffffffffffffffffffffffffffffffffffff1673ffffffffffffffffffffffffffffffffffffffff168152602001908152602001600020805490508110156127865782600260003373ffffffffffffffffffffffffffffffffffffffff1673ffffffffffffffffffffffffffffffffffffffff16815260200190815260200160002082815481106126e3576126e2613863565b5b906000526020600020906002020160000154036127795734600260003373ffffffffffffffffffffffffffffffffffffffff1673ffffffffffffffffffffffffffffffffffffffff168152602001908152602001600020828154811061274c5761274b613863565b5b9060005260206000209060020201600101600082825461276c9190613a0a565b925050819055505061281b565b8080600101915050612647565b50600260003373ffffffffffffffffffffffffffffffffffffffff1673ffffffffffffffffffffffffffffffffffffffff1681526020019081526020016000206040518060400160405280848152602001348152509080600181540180825580915050600190039060005260206000209060020201600090919091909150600082015181600001556020820151816001015550505b5050565b6040518061014001604052806060815260200160608152602001606081526020016060815260200160008152602001600081526020016000815260200160008152602001600081526020016000600381111561287e5761287d612d1c565b5b81525090565b8280548282559060005260206000209081019282156128fd579160200282015b828111156128fc5782518260006101000a81548173ffffffffffffffffffffffffffffffffffffffff021916908373ffffffffffffffffffffffffffffffffffffffff160217905550916020019190600101906128a4565b5b50905061290a9190612aba565b5090565b82805482825590600052602060002090810192821561294a579160200282015b8281111561294957825182559160200191906001019061292e565b5b5090506129579190612aba565b5090565b82805482825590600052602060002090601f016020900481019282156129f05791602002820160005b838211156129c157835183826101000a81548160ff0219169083151502179055509260200192600101602081600001049283019260010302612984565b80156129ee5782816101000a81549060ff02191690556001016020816000010492830192600103026129c1565b505b5090506129fd9190612aba565b5090565b604051806102000160405280606081526020016060815260200160608152602001606081526020016060815260200160008152602001600081526020016000815260200160008152602001600073ffffffffffffffffffffffffffffffffffffffff16815260200160006003811115612a7d57612a7c612d1c565b5b815260200160006001811115612a9657612a95612d1c565b5b81526020016060815260200160608152602001606081526020016000151581525090565b5b80821115612ad3576000816000905550600101612abb565b5090565b6000604051905090565b600080fd5b600080fd5b600073ffffffffffffffffffffffffffffffffffffffff82169050919050565b6000612b1682612aeb565b9050919050565b612b2681612b0b565b8114612b3157600080fd5b50565b600081359050612b4381612b1d565b92915050565b600060208284031215612b5f57612b5e612ae1565b5b6000612b6d84828501612b34565b91505092915050565b600081519050919050565b600082825260208201905092915050565b6000819050602082019050919050565b6000819050919050565b612bb581612ba2565b82525050565b6000612bc78383612bac565b60208301905092915050565b6000602082019050919050565b6000612beb82612b76565b612bf58185612b81565b9350612c0083612b92565b8060005b83811015612c31578151612c188882612bbb565b9750612c2383612bd3565b925050600181019050612c04565b5085935050505092915050565b60006020820190508181036000830152612c588184612be0565b905092915050565b600081519050919050565b600082825260208201905092915050565b6000819050602082019050919050565b600081519050919050565b600082825260208201905092915050565b60005b83811015612cc6578082015181840152602081019050612cab565b60008484015250505050565b6000601f19601f8301169050919050565b6000612cee82612c8c565b612cf88185612c97565b9350612d08818560208601612ca8565b612d1181612cd2565b840191505092915050565b7f4e487b7100000000000000000000000000000000000000000000000000000000600052602160045260246000fd5b60048110612d5c57612d5b612d1c565b5b50565b6000819050612d6d82612d4b565b919050565b6000612d7d82612d5f565b9050919050565b612d8d81612d72565b82525050565b6000610140830160008301518482036000860152612db18282612ce3565b91505060208301518482036020860152612dcb8282612ce3565b91505060408301518482036040860152612de58282612ce3565b91505060608301518482036060860152612dff8282612ce3565b9150506080830151612e146080860182612bac565b5060a0830151612e2760a0860182612bac565b5060c0830151612e3a60c0860182612bac565b5060e0830151612e4d60e0860182612bac565b50610100830151612e62610100860182612bac565b50610120830151612e77610120860182612d84565b508091505092915050565b6000612e8e8383612d93565b905092915050565b6000602082019050919050565b6000612eae82612c60565b612eb88185612c6b565b935083602082028501612eca85612c7c565b8060005b85811015612f065784840389528151612ee78582612e82565b9450612ef283612e96565b925060208a01995050600181019050612ece565b50829750879550505050505092915050565b60006020820190508181036000830152612f328184612ea3565b905092915050565b612f4381612ba2565b8114612f4e57600080fd5b50565b600081359050612f6081612f3a565b92915050565b600060208284031215612f7c57612f7b612ae1565b5b6000612f8a84828501612f51565b91505092915050565b600080fd5b600080fd5b7f4e487b7100000000000000000000000000000000000000000000000000000000600052604160045260246000fd5b612fd582612cd2565b810181811067ffffffffffffffff82111715612ff457612ff3612f9d565b5b80604052505050565b6000613007612ad7565b90506130138282612fcc565b919050565b600067ffffffffffffffff82111561303357613032612f9d565b5b61303c82612cd2565b9050602081019050919050565b82818337600083830152505050565b600061306b61306684613018565b612ffd565b90508281526020810184848401111561308757613086612f98565b5b613092848285613049565b509392505050565b600082601f8301126130af576130ae612f93565b5b81356130bf848260208601613058565b91505092915050565b600481106130d557600080fd5b50565b6000813590506130e7816130c8565b92915050565b600281106130fa57600080fd5b50565b60008135905061310c816130ed565b92915050565b60008060008060008060008060006101208a8c03121561313557613134612ae1565b5b60008a013567ffffffffffffffff81111561315357613152612ae6565b5b61315f8c828d0161309a565b99505060208a013567ffffffffffffffff8111156131805761317f612ae6565b5b61318c8c828d0161309a565b98505060408a013567ffffffffffffffff8111156131ad576131ac612ae6565b5b6131b98c828d0161309a565b97505060608a013567ffffffffffffffff8111156131da576131d9612ae6565b5b6131e68c828d0161309a565b96505060808a013567ffffffffffffffff81111561320757613206612ae6565b5b6132138c828d0161309a565b95505060a06132248c828d01612f51565b94505060c06132358c828d01612f51565b93505060e06132468c828d016130d8565b9250506101006132588c828d016130fd565b9150509295985092959850929598565b600081519050919050565b600082825260208201905092915050565b6000819050602082019050919050565b6040820160008201516132aa6000850182612bac565b5060208201516132bd6020850182612bac565b50505050565b60006132cf8383613294565b60408301905092915050565b6000602082019050919050565b60006132f382613268565b6132fd8185613273565b935061330883613284565b8060005b8381101561333957815161332088826132c3565b975061332b836132db565b92505060018101905061330c565b5085935050505092915050565b6000602082019050818103600083015261336081846132e8565b905092915050565b600067ffffffffffffffff82111561338357613382612f9d565b5b602082029050602081019050919050565b600080fd5b60006133ac6133a784613368565b612ffd565b905080838252602082019050602084028301858111156133cf576133ce613394565b5b835b818110156133f857806133e48882612f51565b8452602084019350506020810190506133d1565b5050509392505050565b600082601f83011261341757613416612f93565b5b8135613427848260208601613399565b91505092915050565b60006020828403121561344657613445612ae1565b5b600082013567ffffffffffffffff81111561346457613463612ae6565b5b61347084828501613402565b91505092915050565b61348281612b0b565b82525050565b6002811061349957613498612d1c565b5b50565b60008190506134aa82613488565b919050565b60006134ba8261349c565b9050919050565b6134ca816134af565b82525050565b600081519050919050565b600082825260208201905092915050565b6000819050602082019050919050565b60006135088383613479565b60208301905092915050565b6000602082019050919050565b600061352c826134d0565b61353681856134db565b9350613541836134ec565b8060005b8381101561357257815161355988826134fc565b975061356483613514565b925050600181019050613545565b5085935050505092915050565b600082825260208201905092915050565b600061359b82612b76565b6135a5818561357f565b93506135b083612b92565b8060005b838110156135e15781516135c88882612bbb565b97506135d383612bd3565b9250506001810190506135b4565b5085935050505092915050565b600081519050919050565b600082825260208201905092915050565b6000819050602082019050919050565b60008115159050919050565b61362f8161361a565b82525050565b60006136418383613626565b60208301905092915050565b6000602082019050919050565b6000613665826135ee565b61366f81856135f9565b935061367a8361360a565b8060005b838110156136ab5781516136928882613635565b975061369d8361364d565b92505060018101905061367e565b5085935050505092915050565b60006102008301600083015184820360008601526136d68282612ce3565b915050602083015184820360208601526136f08282612ce3565b9150506040830151848203604086015261370a8282612ce3565b915050606083015184820360608601526137248282612ce3565b9150506080830151848203608086015261373e8282612ce3565b91505060a083015161375360a0860182612bac565b5060c083015161376660c0860182612bac565b5060e083015161377960e0860182612bac565b5061010083015161378e610100860182612bac565b506101208301516137a3610120860182613479565b506101408301516137b8610140860182612d84565b506101608301516137cd6101608601826134c1565b506101808301518482036101808601526137e78282613521565b9150506101a08301518482036101a08601526138038282613590565b9150506101c08301518482036101c086015261381f828261365a565b9150506101e08301516138366101e0860182613626565b508091505092915050565b6000602082019050818103600083015261385b81846136b8565b905092915050565b7f4e487b7100000000000000000000000000000000000000000000000000000000600052603260045260246000fd5b7f4e487b7100000000000000000000000000000000000000000000000000000000600052602260045260246000fd5b600060028204905060018216806138d957607f821691505b6020821081036138ec576138eb613892565b5b50919050565b600082825260208201905092915050565b7f496e76616c69642050726f6a6563742049640000000000000000000000000000600082015250565b60006139396012836138f2565b915061394482613903565b602082019050919050565b600060208201905081810360008301526139688161392c565b9050919050565b7f596f7520617265206e6f742050726f6a656374204f776e657200000000000000600082015250565b60006139a56019836138f2565b91506139b08261396f565b602082019050919050565b600060208201905081810360008301526139d481613998565b9050919050565b7f4e487b7100000000000000000000000000000000000000000000000000000000600052601160045260246000fd5b6000613a1582612ba2565b9150613a2083612ba2565b9250828201905080821115613a3857613a376139db565b5b92915050565b7f50726f6a6563742046756e64696e672054696d65204e6f742045787069726564600082015250565b6000613a746020836138f2565b9150613a7f82613a3e565b602082019050919050565b60006020820190508181036000830152613aa381613a67565b9050919050565b7f46756e64696e6720676f616c206e6f7420726561636865640000000000000000600082015250565b6000613ae06018836138f2565b9150613aeb82613aaa565b602082019050919050565b60006020820190508181036000830152613b0f81613ad3565b9050919050565b7f416c726561647920636c61696d6564207261697365642066756e647300000000600082015250565b6000613b4c601c836138f2565b9150613b5782613b16565b602082019050919050565b60006020820190508181036000830152613b7b81613b3f565b9050919050565b7f596f7520646964206e6f7420636f6e7472696275746520746f2074686973207060008201527f726f6a6563740000000000000000000000000000000000000000000000000000602082015250565b6000613bde6026836138f2565b9150613be982613b82565b604082019050919050565b60006020820190508181036000830152613c0d81613bd1565b9050919050565b7f416c726561647920636c61696d656420726566756e6420616d6f756e74000000600082015250565b6000613c4a601d836138f2565b9150613c5582613c14565b602082019050919050565b60006020820190508181036000830152613c7981613c3d565b9050919050565b7f596f7520617265207468652070726f6a656374206f776e657200000000000000600082015250565b6000613cb66019836138f2565b9150613cc182613c80565b602082019050919050565b60006020820190508181036000830152613ce581613ca9565b9050919050565b7f50726f6a6563742046756e64696e672054696d65204578706972656400000000600082015250565b6000613d22601c836138f2565b9150613d2d82613cec565b602082019050919050565b60006020820190508181036000830152613d5181613d15565b9050919050565b6000613d6382612ba2565b9150613d6e83612ba2565b9250828202613d7c81612ba2565b91508282048414831517613d9357613d926139db565b5b5092915050565b60008190508160005260206000209050919050565b60006020601f8301049050919050565b600082821b905092915050565b600060088302613dfc7fffffffffffffffffffffffffffffffffffffffffffffffffffffffffffffffff82613dbf565b613e068683613dbf565b95508019841693508086168417925050509392505050565b6000819050919050565b6000613e43613e3e613e3984612ba2565b613e1e565b612ba2565b9050919050565b6000819050919050565b613e5d83613e28565b613e71613e6982613e4a565b848454613dcc565b825550505050565b600090565b613e86613e79565b613e91818484613e54565b505050565b5b81811015613eb557613eaa600082613e7e565b600181019050613e97565b5050565b601f821115613efa57613ecb81613d9a565b613ed484613daf565b81016020851015613ee3578190505b613ef7613eef85613daf565b830182613e96565b50505b505050565b600082821c905092915050565b6000613f1d60001984600802613eff565b1980831691505092915050565b6000613f368383613f0c565b9150826002028217905092915050565b613f4f82612c8c565b67ffffffffffffffff811115613f6857613f67612f9d565b5b613f7282546138c1565b613f7d828285613eb9565b600060209050601f831160018114613fb05760008415613f9e578287015190505b613fa88582613f2a565b865550614010565b601f198416613fbe86613d9a565b60005b82811015613fe657848901518255600182019150602085019450602081019050613fc1565b868310156140035784890151613fff601f891682613f0c565b8355505b6001600288020188555050505b505050505050565b600061402382612ba2565b915061402e83612ba2565b9250828203905081811115614046576140456139db565b5b9291505056fea2646970667358221220590607fa404d52ba92b98ff13964139d51c0776672930a48851481ef75d3134664736f6c63430008180033",
  "linkReferences": {},
  "deployedLinkReferences": {}
}